{
  "_format": "hh-sol-artifact-1",
  "contractName": "WavePortal",
  "sourceName": "contracts/WavePortal.sol",
  "abi": [
    {
      "inputs": [
        {
          "internalType": "uint64",
          "name": "_subscriptionId",
          "type": "uint64"
        }
      ],
      "stateMutability": "payable",
      "type": "constructor"
    },
    {
      "inputs": [
        {
          "internalType": "address",
          "name": "have",
          "type": "address"
        },
        {
          "internalType": "address",
          "name": "want",
          "type": "address"
        }
      ],
      "name": "OnlyCoordinatorCanFulfill",
      "type": "error"
    },
    {
      "anonymous": false,
      "inputs": [
        {
          "indexed": true,
          "internalType": "address",
          "name": "from",
          "type": "address"
        },
        {
          "indexed": false,
          "internalType": "uint256",
          "name": "timestamp",
          "type": "uint256"
        },
        {
          "indexed": false,
          "internalType": "string",
          "name": "message",
          "type": "string"
        }
      ],
      "name": "NewWave",
      "type": "event"
    },
    {
      "anonymous": false,
      "inputs": [
        {
          "indexed": true,
          "internalType": "address",
          "name": "previousOwner",
          "type": "address"
        },
        {
          "indexed": true,
          "internalType": "address",
          "name": "newOwner",
          "type": "address"
        }
      ],
      "name": "OwnershipTransferred",
      "type": "event"
    },
    {
      "anonymous": false,
      "inputs": [
        {
          "indexed": false,
          "internalType": "uint256",
          "name": "requestId",
          "type": "uint256"
        },
        {
          "indexed": false,
          "internalType": "uint256",
          "name": "randomValue",
          "type": "uint256"
        }
      ],
      "name": "RandomValueGenerated",
      "type": "event"
    },
    {
      "inputs": [],
      "name": "getAllWaves",
      "outputs": [
        {
          "components": [
            {
              "internalType": "address",
              "name": "waver",
              "type": "address"
            },
            {
              "internalType": "string",
              "name": "message",
              "type": "string"
            },
            {
              "internalType": "uint256",
              "name": "timestamp",
              "type": "uint256"
            }
          ],
          "internalType": "struct WavePortal.Wave[]",
          "name": "",
          "type": "tuple[]"
        }
      ],
      "stateMutability": "view",
      "type": "function"
    },
    {
      "inputs": [],
      "name": "getTotalWaves",
      "outputs": [
        {
          "internalType": "uint256",
          "name": "",
          "type": "uint256"
        }
      ],
      "stateMutability": "view",
      "type": "function"
    },
    {
      "inputs": [
        {
          "internalType": "address",
          "name": "",
          "type": "address"
        }
      ],
      "name": "lastWavedAt",
      "outputs": [
        {
          "internalType": "uint256",
          "name": "",
          "type": "uint256"
        }
      ],
      "stateMutability": "view",
      "type": "function"
    },
    {
      "inputs": [],
      "name": "owner",
      "outputs": [
        {
          "internalType": "address",
          "name": "",
          "type": "address"
        }
      ],
      "stateMutability": "view",
      "type": "function"
    },
    {
      "inputs": [
        {
          "internalType": "uint256",
          "name": "requestId",
          "type": "uint256"
        },
        {
          "internalType": "uint256[]",
          "name": "randomWords",
          "type": "uint256[]"
        }
      ],
      "name": "rawFulfillRandomWords",
      "outputs": [],
      "stateMutability": "nonpayable",
      "type": "function"
    },
    {
      "inputs": [
        {
          "internalType": "address",
          "name": "",
          "type": "address"
        }
      ],
      "name": "records",
      "outputs": [
        {
          "internalType": "uint256",
          "name": "",
          "type": "uint256"
        }
      ],
      "stateMutability": "view",
      "type": "function"
    },
    {
      "inputs": [],
      "name": "renounceOwnership",
      "outputs": [],
      "stateMutability": "nonpayable",
      "type": "function"
    },
    {
      "inputs": [
        {
          "internalType": "address",
          "name": "newOwner",
          "type": "address"
        }
      ],
      "name": "transferOwnership",
      "outputs": [],
      "stateMutability": "nonpayable",
      "type": "function"
    },
    {
      "inputs": [
        {
          "internalType": "string",
          "name": "_message",
          "type": "string"
        }
      ],
      "name": "wave",
      "outputs": [],
      "stateMutability": "nonpayable",
      "type": "function"
    }
  ],
  "bytecode": "0x60a0604052610384600455655af3107a4000600555736168499c0cffcacd319c818142124b7a15e857ab600860006101000a81548173ffffffffffffffffffffffffffffffffffffffff021916908373ffffffffffffffffffffffffffffffffffffffff1602179055507301be23585060835e02b77ef475b0cc51aa1e0709600960006101000a81548173ffffffffffffffffffffffffffffffffffffffff021916908373ffffffffffffffffffffffffffffffffffffffff1602179055507fd89b2bf150e3b9e13446986e571fb9cab24b13cea0a43ea20a6049a85cc807cc60001b600a55617d00600b556003600c60006101000a81548161ffff021916908361ffff160217905550604051620021843803806200218483398181016040528101906200012e919062000499565b600860009054906101000a900473ffffffffffffffffffffffffffffffffffffffff166200017162000165620002ea60201b60201c565b620002f260201b60201c565b8073ffffffffffffffffffffffffffffffffffffffff1660808173ffffffffffffffffffffffffffffffffffffffff1660601b8152505050620001f46040518060400160405280601581526020017f5765206c696b652074686520636f6e2b63617473210000000000000000000000815250620003b660201b62000a6d1760201c565b600860009054906101000a900473ffffffffffffffffffffffffffffffffffffffff16600660006101000a81548173ffffffffffffffffffffffffffffffffffffffff021916908373ffffffffffffffffffffffffffffffffffffffff160217905550600960009054906101000a900473ffffffffffffffffffffffffffffffffffffffff16600760006101000a81548173ffffffffffffffffffffffffffffffffffffffff021916908373ffffffffffffffffffffffffffffffffffffffff16021790555080600760146101000a81548167ffffffffffffffff021916908367ffffffffffffffff16021790555050620005bb565b600033905090565b60008060009054906101000a900473ffffffffffffffffffffffffffffffffffffffff169050816000806101000a81548173ffffffffffffffffffffffffffffffffffffffff021916908373ffffffffffffffffffffffffffffffffffffffff1602179055508173ffffffffffffffffffffffffffffffffffffffff168173ffffffffffffffffffffffffffffffffffffffff167f8be0079c531659141344cd1fd0a4f28419497f9722a3daafe3b4186f6b6457e060405160405180910390a35050565b6200045681604051602401620003cd919062000506565b6040516020818303038152906040527f41304fac000000000000000000000000000000000000000000000000000000007bffffffffffffffffffffffffffffffffffffffffffffffffffffffff19166020820180517bffffffffffffffffffffffffffffffffffffffffffffffffffffffff83818316178352505050506200045960201b60201c565b50565b60008151905060006a636f6e736f6c652e6c6f679050602083016000808483855afa5050505050565b6000815190506200049381620005a1565b92915050565b600060208284031215620004ac57600080fd5b6000620004bc8482850162000482565b91505092915050565b6000620004d2826200052a565b620004de818562000535565b9350620004f08185602086016200055a565b620004fb8162000590565b840191505092915050565b60006020820190508181036000830152620005228184620004c5565b905092915050565b600081519050919050565b600082825260208201905092915050565b600067ffffffffffffffff82169050919050565b60005b838110156200057a5780820151818401526020810190506200055d565b838111156200058a576000848401525b50505050565b6000601f19601f8301169050919050565b620005ac8162000546565b8114620005b857600080fd5b50565b60805160601c611ba3620005e1600039600081816101b201526102060152611ba36000f3fe608060405234801561001057600080fd5b50600436106100935760003560e01c80638da5cb5b116100665780638da5cb5b1461010a5780639a2cdc0814610128578063a42a466314610146578063bd43a90814610176578063f2fde38b1461019457610093565b80631fe543e314610098578063449d46c0146100b4578063469e9067146100d0578063715018a614610100575b600080fd5b6100b260048036038101906100ad91906110a9565b6101b0565b005b6100ce60048036038101906100c99190611068565b610270565b005b6100ea60048036038101906100e5919061103f565b6106ce565b6040516100f79190611586565b60405180910390f35b6101086106e6565b005b61011261076e565b60405161011f919061139d565b60405180910390f35b610130610797565b60405161013d9190611586565b60405180910390f35b610160600480360381019061015b919061103f565b61080c565b60405161016d9190611586565b60405180910390f35b61017e610824565b60405161018b91906113e1565b60405180910390f35b6101ae60048036038101906101a9919061103f565b610975565b005b7f000000000000000000000000000000000000000000000000000000000000000073ffffffffffffffffffffffffffffffffffffffff163373ffffffffffffffffffffffffffffffffffffffff161461026257337f00000000000000000000000000000000000000000000000000000000000000006040517f1cf993f40000000000000000000000000000000000000000000000000000000081526004016102599291906113b8565b60405180910390fd5b61026c8282610b06565b5050565b42600454600360003373ffffffffffffffffffffffffffffffffffffffff1673ffffffffffffffffffffffffffffffffffffffff168152602001908152602001600020546102be91906116ed565b106102fe576040517f08c379a00000000000000000000000000000000000000000000000000000000081526004016102f590611566565b60405180910390fd5b42600360003373ffffffffffffffffffffffffffffffffffffffff1673ffffffffffffffffffffffffffffffffffffffff16815260200190815260200160002081905550600160405180606001604052803373ffffffffffffffffffffffffffffffffffffffff16815260200183815260200142815250908060018154018082558091505060019003906000526020600020906003020160009091909190915060008201518160000160006101000a81548173ffffffffffffffffffffffffffffffffffffffff021916908373ffffffffffffffffffffffffffffffffffffffff1602179055506020820151816001019080519060200190610401929190610e74565b506040820151816002015550506001600260003373ffffffffffffffffffffffffffffffffffffffff1673ffffffffffffffffffffffffffffffffffffffff168152602001908152602001600020600082825461045e91906116ed565b925050819055506104a56040518060400160405280601b81526020017f5b25735d20776176656420772f204d6573736167653a202725732700000000008152503383610ba2565b3373ffffffffffffffffffffffffffffffffffffffff167f5f7e16dc676677766a70e9c5628aa6c54ddb8b6e5188e2ae1e1f17f1ffbea71642836040516104ed9291906115a1565b60405180910390a260006103e83360405160200161050b919061136d565b6040516020818303038152906040528051906020012060001c61052e9190611848565b905060006001606483424461054391906116ed565b61054d91906116ed565b6105579190611848565b61056191906116ed565b90506105856040518060600160405280602a8152602001611b44602a913982610c41565b603281116106a7574760055411156105d2576040517f08c379a00000000000000000000000000000000000000000000000000000000081526004016105c990611506565b60405180910390fd5b60003373ffffffffffffffffffffffffffffffffffffffff166005546040516105fa90611388565b60006040518083038185875af1925050503d8060008114610637576040519150601f19603f3d011682016040523d82523d6000602084013e61063c565b606091505b5050905080610680576040517f08c379a000000000000000000000000000000000000000000000000000000000815260040161067790611526565b60405180910390fd5b6106a1604051806060016040528060288152602001611aee60289139610a6d565b506106c9565b6106c86040518060600160405280602e8152602001611b16602e9139610a6d565b5b505050565b60026020528060005260406000206000915090505481565b6106ee610cdd565b73ffffffffffffffffffffffffffffffffffffffff1661070c61076e565b73ffffffffffffffffffffffffffffffffffffffff1614610762576040517f08c379a000000000000000000000000000000000000000000000000000000000815260040161075990611546565b60405180910390fd5b61076c6000610ce5565b565b60008060009054906101000a900473ffffffffffffffffffffffffffffffffffffffff16905090565b60006108016040518060600160405280602a8152602001611ac4602a913960018054905033600260003373ffffffffffffffffffffffffffffffffffffffff1673ffffffffffffffffffffffffffffffffffffffff16815260200190815260200160002054610da9565b600180549050905090565b60036020528060005260406000206000915090505481565b60606001805480602002602001604051908101604052809291908181526020016000905b8282101561096c57838290600052602060002090600302016040518060600160405290816000820160009054906101000a900473ffffffffffffffffffffffffffffffffffffffff1673ffffffffffffffffffffffffffffffffffffffff1673ffffffffffffffffffffffffffffffffffffffff1681526020016001820180546108d1906117c1565b80601f01602080910402602001604051908101604052809291908181526020018280546108fd906117c1565b801561094a5780601f1061091f5761010080835404028352916020019161094a565b820191906000526020600020905b81548152906001019060200180831161092d57829003601f168201915b5050505050815260200160028201548152505081526020019060010190610848565b50505050905090565b61097d610cdd565b73ffffffffffffffffffffffffffffffffffffffff1661099b61076e565b73ffffffffffffffffffffffffffffffffffffffff16146109f1576040517f08c379a00000000000000000000000000000000000000000000000000000000081526004016109e890611546565b60405180910390fd5b600073ffffffffffffffffffffffffffffffffffffffff168173ffffffffffffffffffffffffffffffffffffffff161415610a61576040517f08c379a0000000000000000000000000000000000000000000000000000000008152600401610a58906114e6565b60405180910390fd5b610a6a81610ce5565b50565b610b0381604051602401610a819190611403565b6040516020818303038152906040527f41304fac000000000000000000000000000000000000000000000000000000007bffffffffffffffffffffffffffffffffffffffffffffffffffffffff19166020820180517bffffffffffffffffffffffffffffffffffffffffffffffffffffffff8381831617835250505050610e4b565b50565b60006001606483600081518110610b46577f4e487b7100000000000000000000000000000000000000000000000000000000600052603260045260246000fd5b6020026020010151610b589190611848565b610b6291906116ed565b90507f05e22ae5db45ac9cc7c19a6d0de6c52b06f6e8ae7233d96bf52e5c586d4703358382604051610b959291906115d1565b60405180910390a1505050565b610c3c838383604051602401610bba93929190611425565b6040516020818303038152906040527fe0e9ad4f000000000000000000000000000000000000000000000000000000007bffffffffffffffffffffffffffffffffffffffffffffffffffffffff19166020820180517bffffffffffffffffffffffffffffffffffffffffffffffffffffffff8381831617835250505050610e4b565b505050565b610cd98282604051602401610c5792919061146a565b6040516020818303038152906040527f9710a9d0000000000000000000000000000000000000000000000000000000007bffffffffffffffffffffffffffffffffffffffffffffffffffffffff19166020820180517bffffffffffffffffffffffffffffffffffffffffffffffffffffffff8381831617835250505050610e4b565b5050565b600033905090565b60008060009054906101000a900473ffffffffffffffffffffffffffffffffffffffff169050816000806101000a81548173ffffffffffffffffffffffffffffffffffffffff021916908373ffffffffffffffffffffffffffffffffffffffff1602179055508173ffffffffffffffffffffffffffffffffffffffff168173ffffffffffffffffffffffffffffffffffffffff167f8be0079c531659141344cd1fd0a4f28419497f9722a3daafe3b4186f6b6457e060405160405180910390a35050565b610e4584848484604051602401610dc3949392919061149a565b6040516020818303038152906040527f58497afe000000000000000000000000000000000000000000000000000000007bffffffffffffffffffffffffffffffffffffffffffffffffffffffff19166020820180517bffffffffffffffffffffffffffffffffffffffffffffffffffffffff8381831617835250505050610e4b565b50505050565b60008151905060006a636f6e736f6c652e6c6f679050602083016000808483855afa5050505050565b828054610e80906117c1565b90600052602060002090601f016020900481019282610ea25760008555610ee9565b82601f10610ebb57805160ff1916838001178555610ee9565b82800160010185558215610ee9579182015b82811115610ee8578251825591602001919060010190610ecd565b5b509050610ef69190610efa565b5090565b5b80821115610f13576000816000905550600101610efb565b5090565b6000610f2a610f258461161f565b6115fa565b90508083825260208201905082856020860282011115610f4957600080fd5b60005b85811015610f795781610f5f888261102a565b845260208401935060208301925050600181019050610f4c565b5050509392505050565b6000610f96610f918461164b565b6115fa565b905082815260208101848484011115610fae57600080fd5b610fb984828561177f565b509392505050565b600081359050610fd081611a95565b92915050565b600082601f830112610fe757600080fd5b8135610ff7848260208601610f17565b91505092915050565b600082601f83011261101157600080fd5b8135611021848260208601610f83565b91505092915050565b60008135905061103981611aac565b92915050565b60006020828403121561105157600080fd5b600061105f84828501610fc1565b91505092915050565b60006020828403121561107a57600080fd5b600082013567ffffffffffffffff81111561109457600080fd5b6110a084828501611000565b91505092915050565b600080604083850312156110bc57600080fd5b60006110ca8582860161102a565b925050602083013567ffffffffffffffff8111156110e757600080fd5b6110f385828601610fd6565b9150509250929050565b600061110983836112ff565b905092915050565b61111a81611743565b82525050565b61112981611743565b82525050565b61114061113b82611743565b611824565b82525050565b60006111518261168c565b61115b81856116af565b93508360208202850161116d8561167c565b8060005b858110156111a9578484038952815161118a85826110fd565b9450611195836116a2565b925060208a01995050600181019050611171565b50829750879550505050505092915050565b60006111c682611697565b6111d081856116cb565b93506111e081856020860161178e565b6111e981611935565b840191505092915050565b60006111ff82611697565b61120981856116dc565b935061121981856020860161178e565b61122281611935565b840191505092915050565b600061123a6026836116dc565b915061124582611953565b604082019050919050565b600061125d6032836116dc565b9150611268826119a2565b604082019050919050565b60006112806027836116dc565b915061128b826119f1565b604082019050919050565b60006112a36020836116dc565b91506112ae82611a40565b602082019050919050565b60006112c6600e836116dc565b91506112d182611a69565b602082019050919050565b60006112e96000836116c0565b91506112f482611a92565b600082019050919050565b60006060830160008301516113176000860182611111565b506020830151848203602086015261132f82826111bb565b9150506040830151611344604086018261134f565b508091505092915050565b61135881611775565b82525050565b61136781611775565b82525050565b6000611379828461112f565b60148201915081905092915050565b6000611393826112dc565b9150819050919050565b60006020820190506113b26000830184611120565b92915050565b60006040820190506113cd6000830185611120565b6113da6020830184611120565b9392505050565b600060208201905081810360008301526113fb8184611146565b905092915050565b6000602082019050818103600083015261141d81846111f4565b905092915050565b6000606082019050818103600083015261143f81866111f4565b905061144e6020830185611120565b818103604083015261146081846111f4565b9050949350505050565b6000604082019050818103600083015261148481856111f4565b9050611493602083018461135e565b9392505050565b600060808201905081810360008301526114b481876111f4565b90506114c3602083018661135e565b6114d06040830185611120565b6114dd606083018461135e565b95945050505050565b600060208201905081810360008301526114ff8161122d565b9050919050565b6000602082019050818103600083015261151f81611250565b9050919050565b6000602082019050818103600083015261153f81611273565b9050919050565b6000602082019050818103600083015261155f81611296565b9050919050565b6000602082019050818103600083015261157f816112b9565b9050919050565b600060208201905061159b600083018461135e565b92915050565b60006040820190506115b6600083018561135e565b81810360208301526115c881846111f4565b90509392505050565b60006040820190506115e6600083018561135e565b6115f3602083018461135e565b9392505050565b6000611604611615565b905061161082826117f3565b919050565b6000604051905090565b600067ffffffffffffffff82111561163a57611639611906565b5b602082029050602081019050919050565b600067ffffffffffffffff82111561166657611665611906565b5b61166f82611935565b9050602081019050919050565b6000819050602082019050919050565b600081519050919050565b600081519050919050565b6000602082019050919050565b600082825260208201905092915050565b600081905092915050565b600082825260208201905092915050565b600082825260208201905092915050565b60006116f882611775565b915061170383611775565b9250827fffffffffffffffffffffffffffffffffffffffffffffffffffffffffffffffff0382111561173857611737611879565b5b828201905092915050565b600061174e82611755565b9050919050565b600073ffffffffffffffffffffffffffffffffffffffff82169050919050565b6000819050919050565b82818337600083830152505050565b60005b838110156117ac578082015181840152602081019050611791565b838111156117bb576000848401525b50505050565b600060028204905060018216806117d957607f821691505b602082108114156117ed576117ec6118d7565b5b50919050565b6117fc82611935565b810181811067ffffffffffffffff8211171561181b5761181a611906565b5b80604052505050565b600061182f82611836565b9050919050565b600061184182611946565b9050919050565b600061185382611775565b915061185e83611775565b92508261186e5761186d6118a8565b5b828206905092915050565b7f4e487b7100000000000000000000000000000000000000000000000000000000600052601160045260246000fd5b7f4e487b7100000000000000000000000000000000000000000000000000000000600052601260045260246000fd5b7f4e487b7100000000000000000000000000000000000000000000000000000000600052602260045260246000fd5b7f4e487b7100000000000000000000000000000000000000000000000000000000600052604160045260246000fd5b6000601f19601f8301169050919050565b60008160601b9050919050565b7f4f776e61626c653a206e6577206f776e657220697320746865207a65726f206160008201527f6464726573730000000000000000000000000000000000000000000000000000602082015250565b7f547279696e6720746f207769746864726177206d6f726520455448207468616e60008201527f2074686520636f6e7472616374206861732e0000000000000000000000000000602082015250565b7f4661696c656420746f207769746864726177206d6f6e65792066726f6d20636f60008201527f6e74726163742e00000000000000000000000000000000000000000000000000602082015250565b7f4f776e61626c653a2063616c6c6572206973206e6f7420746865206f776e6572600082015250565b7f57616974206d6f72652074696d65000000000000000000000000000000000000600082015250565b50565b611a9e81611743565b8114611aa957600080fd5b50565b611ab581611775565b8114611ac057600080fd5b5056fe257320776176657320746f74616c20285b25735d206861732077617665642025732074696d65287329295468616e6b7320666f7220776176696e672e20596f7520776f6e20736f6d652045544820746f6f215468616e6b7320666f7220776176696e672e204e6f2045544820666f7220796f7520746869732074696d652e2e2e52616e646f6d206e756d6265722067656e657261746564206265747765656e203120616e64203130303aa2646970667358221220875625f0d6a6e09eeec3802cca077ccd7df34a33b8007fb739248e96de2d44d364736f6c63430008040033",
  "linkReferences": {},
  "deployedLinkReferences": {}
}